:020000040800F2
:1000000000800120557F0008A57F0008A57F00081B
:10001000A57F0008A57F0008A57F0008000000005C
:10002000000000000000000000000000A57F0008A4
:10003000A57F000800000000A57F0008FF51000810
:10004000A57F0008A57F0008A57F0008A57F000800
:10005000A57F0008A57F0008F9520008FF5200089C
:10006000055300080B53000811530008A57F000832
:10007000A57F0008A57F0008A57F0008A57F0008D0
:10008000A57F0008A57F0008A57F000800000000EC
:1000900000000000000000000000000017530008EE
:1000A000154400088D43000829440008B1430008A6
:1000B000C5430008D9430008ED430008DD0F0008E0
:1000C000E90F0008F50F000801100008A57F0008DF
:1000D000A57F0008555D00086D5D00080000000068
:1000E0003F530008A57F00081174000800000000BD
:1000F000000000000000000000000000A57F0008D4
:1001000000000000A57F000801440008A57F00084A
:1001100000000000000000000000000000000000DF
:10012000A57F0008A57F0008A57F0008A57F00081F
:10013000A57F000800000000000000000000000093
:10014000000000000000000000000000057400082E
:10015000A57F0008A57F0008A57F0008895D00082D
:100160000D10000819100008000000000000000039
:10017000000000000000000000000000000000007F
:1001800000000000A57F0008000000000000000043
:04019000A57F00083F
:10019400034613F8012B002AFBD1181A01387047C3
:1001A40053B94AB9002908BF00281CBF4FF0FF31DA
:1001B4004FF0FF3000F00CB8ADF1080C6DE904CE3F
:1001C40008F0FEF9DDF804E0DDE9022304B070472D
:1001D400704700BF10B5054C237833B9044B13B1F5
:1001E4000448AFF300800123237010BD0C020020EB
:1001F40000000000C488000808B5034B1BB1034984
:100204000348AFF3008008BD000000001002002086
:10021400C488000808B5C42007F0D6FEB0F5FA7FFC
:1002240094BF0020012008BD38B5044607F0B4FF90
:100234004FF47A7305465C4307F0AEFF431BA342B9
:1002440001D3002038BDC52007F06AFF18B90A2081
:1002540007F0A4FFF0E70120F4E708B50121C3206B
:1002640007F026FFBDE808400121C72007F020BFA2
:1002740008B50021C32007F01BFFBDE8084000219A
:10028400C72007F015BF000008B50146044807F071
:1002940027FDBDE808404FF4FA7007F07FBF00BFA8
:1002A4003802002007B52423009309220A210548B7
:1002B40007F036FB0449054803B05DF804EB07F08A
:1002C4009BBD00BF38020020DC8800082C020020FF
:1002D400014807F04FBD00BF2C0200201FB50121CB
:1002E400C32007F087FE0121C72007F083FE002109
:1002F400C52007F07FFE01211E2007F07BFE0121AF
:100304001E2007F0D5FE0021C42007F073FE294B00
:1003140029499A6DC1F88820DB6DC1F884302648DC
:10032400002100F0D3FB2448682100F0E5F96B219B
:10033400214800F03AFA00211F4800F036FA1E481E
:1003440000F001FB06224FF416511C4807F034FC60
:1003540041F2883007F022FF194901A807F04CFD4B
:1003640001A8FFF791FF01A807F004FD4FF47A708C
:1003740007F014FF134901A807F03EFD01A8FFF799
:1003840083FF01A807F0F6FC4FF47A7007F006FF2C
:100394000D4901A807F030FD01A8FFF775FF01A87A
:1003A40007F0E8FC4FF4FA6005B05DF804EB07F0E1
:1003B400F5BE00BF808E00085003002038020020E4
:1003C400E9880008EC880008F6880008FFF786BF73
:1003D40010B5682104460D4800F08EF921460B48FB
:1003E40000F0E3F90021094800F031FA0222682103
:1003F400064800F0A3FA054800F0C6F8044603488E
:1004040000F0C2F840EA042000B210BD50030020FE
:1004140038B53B20FFF7DCFF05463D20FFF7D8FF4A
:1004240004463F20FFF7D4FF002DB8BF6D42ADB2A4
:1004340047F658339D420ED8002CB8BF6442A4B28C
:100444009C4208D80028B8BF404280B2984294BF6A
:100454000020012038BD0120FCE7000038B5054626
:100464000C461748174907F045FC4FF47A7007F01B
:1004740095FE1549124807F01CFC2946104807F060
:1004840013FC12490E4807F035FC4FF47A7007F05C
:1004940085FE21460A4807F007FC4FF4FA7007F07E
:1004A4007DFE1A21064807F058F90949094807F062
:1004B40021FCBDE838404FF47A7007F06FBE00BFEE
:1004C40038020020EC880008028900080A89000824
:1004D4000C8900086006002010B586B0FFF7C8FE3E
:1004E400FFF796FFE0B1FFF7B8FE0320FFF79CFE8D
:1004F40020B106B0BDE81040FFF7BABE1A496846FD
:1005040007F09BFC194903A807F076FC03A9684689
:10051400FFF7A4FF03A807F02DFC684607F02AFCA8
:10052400FFF778FE124CE8B12368CBB9FFF795FECC
:100534000D49684607F081FC0E4903A807F05CFCEE
:1005440003A96846FFF78AFF03A807F013FC68466F
:1005540007F010FC41F2883007F020FE01232360ED
:1005640006B010BD2060FBE72C02002016890008AD
:100574002802002024890008FFF7AEBF002070473E
:10058400028BC08A101A7047C28A018B914288BFBD
:100594000169034683BF885C0132DA824FF0FF3081
:1005A4007047028BC38A9A4286BF0269D05C4FF0BF
:1005B400FF307047806DD0F8DC302BB100234384CA
:1005C400D0F8E030D43018477047836810B504463B
:1005D40013B1032201469847204610BD70B54FF46D
:1005E4007A730E460021C0E90113034615462B4ACF
:1005F40043F8C42B0446C0F8C4109C22C3E901117B
:10060400C0E93411C0E93611C0F8E010283007F011
:10061400E5FEF3B2232B19D8214A52F8233006F40D
:10062400E0661E43EBB2232BC4F8846022D81C4A34
:1006340052F8233005F4E0651D430023C4F88850C4
:10064400E36123842361A382204670BD06F0C002C7
:10065400C02A0CD1C92B0AD8124B06F03F0206F46B
:10066400E06653F822200E4B53F82230D9E74FF0BE
:10067400FF36D7E705F0C002C02A0CD1C92B0AD82F
:10068400084B05F03F0205F4E06553F82220044BC3
:1006940053F82230D0E74FF0FF35CEE7C889000881
:1006A400808E0008588E000838B50446283000F0C3
:1006B400FFFAE06918B107F0A5FD0023E3612069A2
:1006C4000025258410B107F09DFD2561A58238BD64
:1006D40038B50546074B45F8D43B0446FFF7E4FF1D
:1006E4002846FFF772FF04F1C400FFF76EFF2046AF
:1006F40038BD00BFC88900080123994080F8243020
:10070400002381764384704738B5838A8B4205463B
:100714000C4609D2202938BF20240069214607F05D
:1007240027FE10B12861AC8238BDFEE773B5846D35
:10073400866ED4F8CC300546E3B1E28A238B9A4224
:1007440018D331462046FFF7DFFF2069324605F112
:10075400740107F089FE0023E382D4F8CC302683A9
:1007640001960BB908F0A8F8D4F8D03001A904F127
:10077400C400984702B070BDB1F5806F70B50546EE
:100784000C4610D8038C99420AD920290E4638BF4A
:100794002026C069314607F0EBFD18B1E8612E84CC
:1007A400204670BDFEE70024FAE713B590F8243024
:1007B4008DF8071004467BB1418C0131FFF7DCFF53
:1007C40040B1638CE2699DF80710D154638C013306
:1007D4006384012002B010BD01220DF1070128300D
:1007E40000F0B6FAB0FA80F04009F3E770B590F87B
:1007F400243004460E46154693B1418C1144FFF74C
:10080400BBFF10B90025284670BD638CE0692A46F9
:100814001844314607F028FE638C2B446384F2E7C6
:1008240092B2283000F094FA0028EBD1EBE70346AB
:10083400006918B19A8A002107F0D0BD70470346B9
:10084400C06918B11A8C002107F0C8BD704738B5CB
:100854000446D1B94FF42A03A36594F8BE30012BA2
:1008640016D1638CE269A17E04F1280000F0F0FA4D
:10087400042828BF0420C5B22046FFF7E0FF002368
:10088400638484F82430284638BD4FF02A43E3E7D4
:100894000425F8E72DE9F04790F8BEA09DF8206004
:1008A4009DF82490BAF1010F04460F461546984668
:1008B40039D111467F00FFF727FFFFB27EB1002335
:1008C400032E84F824A0A776638428BF0326013E60
:1008D400F6B2FF2E1BD100212046FFF7B8FFB9F175
:1008E400000F1DD14FF42A03A36522692B46394614
:1008F40004F1280000F046FA002398422E461CBF5B
:100904001D462E46E38226832846BDE8F0872368E9
:10091400F10028FA01F11B68C9B220469847D6E7CE
:100924004FF02A43E0E70020EFE707B501930023E7
:100934000093FFF7AFFF03B05DF804FB0123D2B2CD
:10094400C9B2FFF7F2BF0121FFF781BF38B50446F2
:100954000025C5820583FFF76AFF65842046FFF7FB
:100964006EFF38BD2DE9F0410446D0F8840007F04D
:1009740081FA002107F03EFBD4F88430C3F303125C
:10098400052A44D8264D274F55F8222003F00F039B
:10099400126957F8233093433FD0D4F8880007F006
:1009A40069FA012107F026FBD4F888001E4B1F4C7E
:1009B4001B68B3FBF4F3C0F303110A24052900F008
:1009C4000F0204FB03F325D857F82270184A1426A3
:1009D4004FEA074E55F821C0CCF818E0D2F804804D
:1009E4005468A4EB0804A342FADCCCF81870D2F8DB
:1009F40004C05468A4EB0C04A342FADC013EE9D120
:100A040007F038FA3146BDE8F04107F0F3BA0023A5
:100A14001B69FFDE00239B61FBE7BDE8F08100BF9B
:100A240008000020EC8900082C00002040420F0040
:100A3400001000E02DE9F04104460026C68206833A
:100A44001F460D469046FFF7F2FE6684A6762046C2
:100A5400FFF7F5FED4F8DC30C4F8804033B104F17C
:100A6400D401032208469847C4E93766002384F872
:100A740024306B0084F825306B1E5D425D4184F8A0
:100A8400BE50204684F8BF8084F8C07004F1280565
:100A9400FFF768FF94F825200949284600F02AF852
:100AA40094F8BE304BB92846064900F029FA284686
:100AB4000549BDE8F04100F01CBABDE8F08100BF73
:100AC400A0860100B9050008310700080A46002382
:100AD4000121FFF7AFBF000002481A221321FFF7DC
:100AE4007DBD00BF500300200148FFF7F1BD00BFEA
:100AF40050030020F0B50D4685B016460446002884
:100B040000F0C0806049C06D04F068FD5F4907468D
:100B1400206E04F063FD0146002F00F0B38000282E
:100B240000F0B080384604F080FD2060002800F01A
:100B3400A980574B984204F104074FF0000361D198
:100B44000193544B1A6C42F400121A641A6C02F4A6
:100B540000120192019A1A6A42F400121A621A6A85
:100B640022F400121A6242F21F03A4F864304A4BC2
:100B74001F604649206E04F019FD4349E06D04F0FE
:100B840015FD464B21689D4276D9454B9D4203D9BC
:100B9400444B9D4288BF00234FF480420025C4E9A2
:100BA40001134FF48043C4E9053594F8973094F960
:100BB4006400E5615B1B18BF01239B01236294F869
:100BC400983084F841505B1B18BF0123DB0163623A
:100BD4000221C4E903262A4600F0D4FC94F96400F7
:100BE40000F002FD94F965002A46022100F0CAFCD7
:100BF40094F9650000F0F8FC384600F0FDFD00288B
:100C04003CD0FEE7284A904219D10293214B1A6C3A
:100C140042F480021A641A6C02F480020292029A6C
:100C24001A6A42F480021A621A6A22F480021A6270
:100C340042F22123A4F86430174B5F6099E71B4A02
:100C4400904296D10393134B1A6C42F400021A6437
:100C54001A6C02F400020392039A1A6A42F4000224
:100C64001A621A6A22F400021A6244F64813A4F8BB
:100C74006430094B9F607CE700228FE70223A06663
:100C840084F8953005B0F0BD988D00085C8D00089F
:100C9400005400400038024034040020A0860100C3
:100CA400801A060040420F0000580040005C0040DB
:100CB40010B5044690F9640000F0A4FC94F96500B2
:100CC40000F0A0FC201D00F040FE206E032104F083
:100CD400DFFBE06D032104F0DBFB2368184A934239
:100CE4000DD1184B1A6A42F400121A621A6A22F4DD
:100CF40000121A621A6C22F400121A6410BD124A0D
:100D040093420CD10F4B1A6A42F480021A621A6A97
:100D140022F480021A621A6C22F48002EDE70B4A74
:100D24009342EBD1074B1A6A42F400021A621A6A20
:100D340022F400021A621A6C22F40002DDE700BFFA
:100D4400005400400038024000580040005C00405D
:100D5400202A30B514D800239CB2A24207D890F8B8
:100D640094301344DBB280F89430002030BD90F806
:100D74009440CD5C1C440444013384F87450EBE784
:100D84000120F3E72DE9F34705460F4690469946BF
:100D940000F0A0F90024D5F830A006460435CDF8BB
:100DA40000A04B4642463946284600F0FBFE022886
:100DB40006D100F08FF9841B642CF0D906201FE0C3
:100DC40008BB00F087F90646284601F055FE2028A6
:100DD40009D0632C07D800F07DF9841B284601F064
:100DE4004EFE0028F0D0284601F049FE632C0CD8B2
:100DF40082060AD443070AD4003818BF01208000B1
:100E040002B0BDE8F0870420FAE70520F8E70320E4
:100E1400F6E710B564230446043000F0AFFD022861
:100E240010D0032806D090B194F84130202B18BF7D
:100E3400042004E094F84130202B18BF052008BF9B
:100E4400022004E094F84130202B18BF062010BD86
:100E54002DE9F34704460E4691461F4600F03AF941
:100E640080463FB901223146204602B0BDE8F04732
:100E7400FFF7CFBFD4F830A000250434CDF800A08C
:100E84003B464A463146204600F024FE022807D15C
:100E940000F020F9A0EB0805642DEFD906201FE02F
:100EA40008BB00F017F90646204601F0E5FD2028AE
:100EB40009D0632D07D800F00DF9851B204601F0F9
:100EC400DEFD0028F0D0204601F0D9FD632D0CD8BA
:100ED40082060AD443070AD4003818BF01208000D0
:100EE40002B0BDE8F0870420FAE70520F8E7032004
:100EF400F6E720B119B1C166043000F04FBF704766
:100F040020B119B10167043000F048BF704770B5D3
:100F140090F89130012B04460D46A0F1040609D146
:100F2400436E3BB1836E30469847022384F8913078
:100F3400002363668DB9E36E84F891501BB184F885
:100F440090503046984794F8902004F17001204660
:100F54002023BDE8704000F0ABBE0023012263668D
:100F640084F89120616E7431314420460423BDE835
:100F7400704000F0D8BE10B590F89130012B0446B3
:100F840004D1436E13B1836E04389847022384F866
:100F94009130002363662046BDE8104000F0FEBE99
:100FA400436E1F2BDEBF436E0133436690F89130CE
:100FB400012BDAB205D1416E70310423014400F0F3
:100FC400B2BE7047002380F89030704790F892309A
:100FD4000BB900F0E3BE7047014B186801F05EB82E
:100FE40034040020014B186801F0AABC340400202A
:100FF400014B586801F052B834040020014B586882
:1010040001F09EBC34040020014B986801F046B8FE
:1010140034040020014B986801F092BC3404002091
:101024000149024803F00EBA004801404004002080
:10103400014803F047B900BF400400207047000096
:1010440038B50E4B1A784FF47A73B3FBF2F30C4AAB
:1010540005461068B0FBF3F000F0E6FA044658B910
:101064000F2D09D8024629464FF0FF3000F08AFAC6
:10107400044B20461D6038BD0120FCE70000002021
:101084002C0000200400002008B50B4B1A6842F421
:1010940000721A601A6842F480621A601A6842F494
:1010A40080721A60032000F05BFA0020FFF7C8FF8B
:1010B400FFF7C4FF002008BD003C0240034A044B74
:1010C40011681B780B441360704700BFF0040020C4
:1010D40000000020014B1868704700BFF004002096
:1010E40038B50446FFF7F6FF631C1CBF054B1B789D
:1010F400054618BFE418FFF7EDFF431BA342FAD3DC
:1011040038BD00BF0000002038B50446002800F0B8
:101114009B80056C25B903F06FFF656484F83C502F
:10112400236CDB0600F18E80236C23F4885323F0B8
:10113400020343F002032364444B5A6822F440320E
:101144005A605A6861680A435A60236821695A6878
:1011540022F480725A605A6842EA01225A605A683C
:10116400A16822F040725A605A680A435A609A6829
:10117400E16822F400629A609A680A439A603449EA
:10118400A26A8A4252D0996821F070619960996884
:101194000A439A609A68E16A22F040529A609A6817
:1011A4000A439A609A6822F002029A609A68217E41
:1011B40042EA41029A6094F82020002A3ED05A68FC
:1011C400616A42F400625A605A6822F460425A60CA
:1011D4005A68013942EA41325A60DA6AE16922F412
:1011E4007002DA62DA6A013942EA0152DA629A6812
:1011F40022F400729A609A6894F8301042EA41220C
:101204009A609A68616922F480629A609A68002000
:1012140042EA81229A606064236C23F0030343F062
:1012240001032364002384F83C3038BD9A6822F01B
:1012340070629A609A6822F04052B2E75A6822F4C7
:101244000062C9E70120EDE70120EEE70023014039
:101254000100000F38B50446A0B1036C43F002034B
:10126400036403689A6822F001029A609D6815F08D
:10127400010503D103F0E4FE65642564002084F8CD
:101284003C0038BD0120FCE782B00023019390F8B4
:101294003C30012B56D0012380F83C3003689A6817
:1012A400D1070BD59A68D2071AD4036C43F0100304
:1012B4000364436C43F00103436440E09A682249A9
:1012C40042F001029A60214A1268B2FBF1F202EB89
:1012D40042020192019A002AE4D0019A013AF8E705
:1012E400026C22F4E06222F0010242F48072026491
:1012F4005A68510541BF026C22F4405242F48052B4
:101304000264026C12F480521CBF426C22F006028A
:101314004264002280F83C206FF022021A600C4ADA
:101324005268D20608D19A6812F0405F02BF9A68E8
:1013340042F080429A6002E0064A9342F3D00020D1
:1013440002B070470220FBE740420F002C0000204F
:10135400002301400020014090F83C30012B14D0C0
:1013640003689A6822F001029A609B68DB0707D43D
:10137400036C23F4885323F0010343F00103036453
:10138400002380F83C3018467047022070470368F9
:101394009A68520570B504460D460BD59B68DE0568
:1013A40008D5036C43F020030364002380F83C3029
:1013B400012070BDFFF78EFE064623681A68910768
:1013C4000CD56FF012021A60226C42F4007222648F
:1013D4009A6812F0405F17D00020EAE7681CEDD04D
:1013E40065B923681B6813F00203E6D1226C84F804
:1013F4003C3042F0040222640320DAE7FFF76AFE7D
:10140400801BA842EDD8D8E7227E002AE4D1DA6A0C
:1014140012F4700F02D09B685A05DDD4236C23F4B8
:1014240080732364236CDB04D6D4236C43F0010360
:101434002364D1E70368D86C70470000F7B5002334
:10144400019390F83C30012B05467CD0012380F8B1
:101454003C3008682B688E68092884B230D904EBC4
:101464004402DF681E3A4FF0070C0CFA02FC27EA2C
:101474000C07DF60DF6806FA02F23A43DA60496873
:10148400062901EB81022AD8596B053A1F2696409A
:1014940021EA06015963596B04FA02F20A435A63BA
:1014A4002A4A934207D1122834D1D2F8043343F4A0
:1014B4008003C2F80433002085F83C0003B0F0BD7B
:1014C4001A6900EB400C072707FA0CF722EA070217
:1014D4001A611A6906FA0CF616431E61CFE70C2945
:1014E4004FF01F010BD81E6B233A914026EA0101ED
:1014F4001963196B04FA02F20A431A63D0E7DE6A2D
:10150400413A914026EA0101D962D96A94400C43D8
:10151400DC62C5E7A0F11003012BCCD80C4A536858
:10152400102843F400035360C5D10A4B0A4A1B68D0
:10153400B3FBF2F30A2253430193019B002BBAD06D
:10154400019B013BF8E70220B8E700BF00200140FF
:10155400002301402C00002040420F00006C704723
:101564000749CA6822F4E0620302120403F4E06348
:10157400120C134343F0BF6343F40033CB60704752
:1015840000ED00E0164B30B5DC68C4F30224C4F16E
:101594000703251D042B28BF0423062D4FF0FF3518
:1015A4008CBF033C002405FA03F321EA0303A5409E
:1015B40022EA0502A340002843EA0203ACBF00F17B
:1015C4006040084A4FEA0313B8BF00F00F00DBB2D3
:1015D400AABF00F56140135480F8003330BD00BF4A
:1015E40000ED00E014ED00E0002807DB044A4109A7
:1015F400012300F01F00834042F82130704700BFF0
:1016040000E100E000280CDB4309064900F01F005C
:1016140020330122824041F82320BFF34F8FBFF3D0
:101624006F8F704700E100E00138B0F1807F0BD28A
:101634004FF0E023054A5861F02182F8231000207E
:10164400072298611A6170470120704700ED00E09D
:10165400002808DB4309044900F01F00012260331D
:10166400824041F82320704700E100E0704708B54C
:10167400FFF7FCFF08BD704710B5044650B143792D
:1016840003F0FF0213B90271FFF7F5FF0123637141
:10169400002010BD0120FCE770B50446866DFFF7FD
:1016A40019FD94F83530022B054606D08023636576
:1016B4000120002384F8343070BD23681A6822F0B6
:1016C40016021A605A6922F080025A61226C0AB921
:1016D400A26C1AB11A6822F008021A601A6822F081
:1016E40001021A602368186810F0010007D1E26D46
:1016F4003F239340B360012384F83530D9E7FFF7E3
:10170400E9FC401B0528EDD920230320636584F8F8
:101714003500CEE790F83530022B03D080234365A3
:10172400012070470268052380F83530136823F0E0
:10173400010313600020704790F8350070470000E3
:10174400044A5169014208B502D0506103F0BCFD5E
:1017540008BD00BF003C01402DE9F84606460F468F
:1017640091461D464FEA114A3368BAF1010F39D147
:101774005C6927EA0404A4B2B4FA84F46409A145B8
:1017840001D0002024E06A1CEFD0FFF7A3FC089BE3
:10179400C01AA84201D8002DE6D1BAF1010F33686E
:1017A40018D15B6927EA03039BB2B3FA83F35B099D
:1017B4009945D9D100232022336386F83D2086F849
:1017C4003E30326C86F83C3042F020023264012014
:1017D400BDE8F8869B69DB43C3F3400383F0010350
:1017E400DBB2E5E79C69E443C4F3400484F00104FC
:1017F400E4B2C4E77047000070B5044608B901209C
:1018040070BD90F83D3003F0FF021BB980F83C2016
:10181400FFF7F0FF242384F83D3023681A6822F090
:1018240001021A601A6842F400421A601A6822F42B
:1018340000421A6002F0C2F83F4B65689D4294BFB3
:101844003E4B3F4B98428CBF00230123002BD6D143
:101854002268394E51683B4BB0FBF3F321F03F0152
:101864001943B542516088BF4FF49676116A88BF18
:10187400734321F03F0184BF4FF47A76B3FBF6F350
:1018840001330B431362D169431E2B4821F44F41AA
:10189400854221F0FF0132D86D0040F6FC70B3FBA5
:1018A400F5F30133034242D0C3F30B031943D1616F
:1018B400D4E907301168034321F0C0010B431360DE
:1018C4009168D4E9030321F40341034321F0FF01A8
:1018D4000B439360D4E90530D168034321F0FF0141
:1018E4000B43D360136843F00103136000202023EB
:1018F400206484F83D30206384F83E0080E7A068CB
:1019040050B905EB4505B3FBF5F30133C3F30B0302
:101914007BB143F40043C9E719206843B3FBF0F3F8
:101924000133C3F30B0323B143F44043BEE7042361
:10193400BCE70123BAE700BFA08601007F841E0034
:10194400FF083D0040420F00704710B5044698B1AF
:101954000268242380F83D30136823F001031360E8
:10196400FFF7F2FF0020206484F83C0084F83D0077
:10197400206384F83E0010BD0120FCE72DE9FF47F9
:1019840004461F4689469246FFF7A4FB94F83D306F
:10199400202B054603D0022004B0BDE8F087009058
:1019A4004A49192301222046FFF7D6FE0028F2D126
:1019B40094F83C30012BEED0012384F83C302368AA
:1019C4001A68D2075EBF1A6842F001021A601A68E8
:1019D40022F400621A60242384F83D3000263C4B34
:1019E400266409F0FE09E3622268136843F48073F5
:1019F40013604FF001113B46009500222046FFF78B
:101A0400ABFE236838B11B68DB0544BF4FF4007399
:101A140023640320C0E7C3F81090FFF75BFB226840
:101A2400536952690546C3F34003C2F380224FF061
:101A3400A00894F83D10A02901D013431DD02068BC
:101A44004FF0200884F83D80436913F0020F0368C7
:101A540043F40073036025D0002303934369039385
:101A640083690393039B1949009519230122204696
:101A7400FFF772FE88B101208EE7FFF72BFB401BB6
:101A8400B84200D80FB984F83D802268536952697E
:101A9400C3F34003C2F38022CBE784F83D8084F88B
:101AA4003C0079E76FF4806343610849009519238A
:101AB40001222046FFF750FE0028DCD101365645AE
:101AC40092D384F83D8084F83C00D4E702001000EF
:101AD4000000FFFFF7B5002504460095019594F832
:101AE4003D500898202D02D0022003B0F0BD256897
:101AF4002E68B60503D4082801D001281BD1284E2E
:101B040046F2A8173668B6FBF7F619277E43019606
:101B1400019E013E0196019E56B92023266384F856
:101B24003D3084F83E60236C43F020032364DBE7FC
:101B3400AE69B707ECD494F83C60012ED4D02E687B
:101B4400F6075EBF2E6846F001062E602E6826F466
:101B540000662E60212684F83D60102684F83E60DD
:101B6400002626646385638DE06261642385236BAC
:101B74000093009B6262112B05D1B0F52A0F02D0AD
:101B8400B0F12A4F03D12B6843F480732B600020FB
:101B940084F83C006B6843F4E0636B60A5E700BF26
:101BA4002C000020F7B5002504460095019594F813
:101BB4003D500898202D02D0022003B0F0BD2568C6
:101BC4002E68B60503D4082801D001281BD1374E4E
:101BD40046F2A8173668B6FBF7F619277E43019636
:101BE400019E013E0196019E56B92023266384F886
:101BF4003D3084F83E60236C43F020032364DBE72C
:101C0400AE69B707ECD494F83C60012ED4D0012619
:101C140084F83C602E68F6075EBF2E6846F0010625
:101C24002E602E6826F400662E60222684F83D601D
:101C3400102684F83E60002626646385638DE06286
:101C440061642385236B0093638D62629BB2022BD4
:101C540024D1202801D0102820D1009B122B2B68DE
:101C64001DD123F480632B602B6843F400632B6045
:101C74004FF44072009B122B05D1B0F52A0F02D00D
:101C8400B0F12A4F03D12B6843F480732B600020FA
:101C940084F83C006B6813436B608EE72B6843F455
:101CA40080632B604FF4E062E4E700BF2C00002067
:101CB40037B5044690F83D0000F02800282830D1BC
:101CC40000292CD0002A2AD094F83C00012828D0DE
:101CD40025682868C0075EBF286840F001002860B6
:101CE400286820F400602860292084F83D00202022
:101CF40084F83E00002020646285628DE3620190D6
:101D04006B690193AB69019384F83C00019B6B6898
:101D1400616243F4E06322856B6003B030BD01204F
:101D2400FBE70220F9E737B5044690F83D0000F0E0
:101D34002800282830D100292CD0002A2AD094F851
:101D44003C00012828D025682868C0075EBF2868A1
:101D540040F001002860286820F4006028602A20F0
:101D640084F83D00202084F83E0000202064628531
:101D7400628DE36201906B690193AB69019384F80E
:101D84003C00019B6B68616243F4E06322856B60F5
:101D940003B030BD0120FBE70220F9E790F83D30A5
:101DA400202B14D1282380F83D3003681A68D20709
:101DB4005EBF1A6842F001021A601A6842F4806237
:101DC4001A605A6842F440725A6000207047022038
:101DD400704770477047704790F83D2008B5036D11
:101DE400D2B283B9C36C0268012B836C05D1DBB218
:101DF4001361036D0233036508BDC3F30723136145
:101E0400036D0133F7E7036D012B03D1836C026883
:101E1400DBB2F4E7036D022B2FD1222A05D102682D
:101E2400136843F480731360EAE7438D9BB263B194
:101E3400212A0AD1436A026813F8011B1161436223
:101E4400438D013B9BB24385D6E7438D9BB2002B68
:101E5400D2D1212AD0D10268516821F4E0615160C5
:101E6400116841F4007111602022036380F83D2061
:101E740080F83E30FFF7AFFFBEE703685A691206E9
:101E840044BF00221A61B7E77047704737B5002393
:101E940001932D4B806B1B6890F83D2046F2A811EE
:101EA400B3FBF1F323214B4301930368D2B20199AD
:101EB40041BB016C41F020010164446B0CB1002171
:101EC400E163816B09B10025CD631D6825F480654C
:101ED4001D600025458504B1256501B10D651968AE
:101EE40021F00101196090F83D10602911D12023DF
:101EF40080F83D30002380F83E300364FFF7C5FFCF
:101F040003B030BD01990139019119688905CED416
:101F1400D3E702F02802282A0ED1196841F0010102
:101F24001960196841F4806119600023036380F823
:101F34003D20FFF74BF8E3E7202380F83D300023F2
:101F440080F83E30F5E700BF2C00002010B590F873
:101F54003D2090F83E30102BD9B204460368D2B22B
:101F640001D0402913D1222A11D1196821F400612A
:101F74001960596811F4006106D1602A1EBF20223D
:101F840084F83D2084F83E100022226307E002F02A
:101F940028012829EDD10022226384F83D105A68D3
:101FA40012F400624FD05A68606B22F400625A60E7
:101FB40090F83530012B374B2BD00365FFF7AAFB84
:101FC40050B12268606B136823F00103136020236F
:101FD40084F83D30036D9847236C19071FBF2268AE
:101FE400536823F4E063536094F83D30226C520745
:101FF400DBB20DD5282B0BD1274BE3622022002323
:102004002363204684F83D2084F83E30FEF7B3FF76
:1020140010BDA06B0365FFF77DFB0028DCD02368AF
:102024005A69510605D51A69636A1A70636A0133DD
:1020340063622268A06B136823F0010313602023FA
:1020440084F83D30C6E794F83D10602915D120216D
:1020540084F83D1022645A69520605D51A69636AE8
:102064001A70636A013363622268136823F0010300
:1020740013602046FFF709FFAEE75A69500605D5FD
:102084001A69636A1A70636A013363622046FEF751
:102094009DFFA1E7911E00080000FFFFF0B5036853
:1020A40004465A68C66A90F83E0094F83D10102819
:1020B4008FB0C5B2C9B202D0402D40F0DD829F6915
:1020C400586910F0010F07D1B6F52A0F02D0B6F106
:1020D4002A4F51D10FB0F0BD96054DD5E26AB2F545
:1020E4002A0F0CD10122E26294F83E20402A11D139
:1020F400226D52B9626C02F0FE021A61EAE7E26AEA
:10210400B2F12A4FF0D10822EDE7626C42F00102ED
:10211400D2B2F2E72269B2F5804F1AD194F83D2089
:10212400212A626C11D102F0FE021A61626B0AB1BB
:10213400D26B2AB9A26B002ACCD0D26B002AC9D0A8
:102144005A6842F400625A60C4E742F00102D2B213
:10215400EBE7226D32B9626CD21102F0060242F052
:10216400F002CAE7226D012AB4D1626CD21102F0E6
:10217400060242F0F102C0E7060703D5960501D531
:10218400626CE4E7860740F1E880960540F1E5805B
:1021940094F83E10E26A256B94F83D002228C9B2F7
:1021A40040F0D380206D40B9402906D101905A698E
:1021B40001929B690193019B8CE7216D89B9206988
:1021C400B0F5404F0DD102915A6902929A69029278
:1021D400029A1A6842F480721A60236D01332365EF
:1021E40078E7618D89B251B903915A6903929A696A
:1021F4000392039A1A6842F400721A6019E0618D1E
:1022040089B2012949D112F5803F1BD11A6822F401
:1022140080621A605A6812F400620CD01A6822F4C0
:1022240080621A60002204925A6904929B690493A2
:10223400049B0023D3E705925A6905929A69059293
:10224400059AD7E7082A1CD0202A1AD0122D0DD1BE
:10225400012A16D11A6822F480621A6000220692BA
:102264005A6906929B690693069BE2E7102AF1D805
:10227400824941FA02F2D707ECD41A6842F4806228
:10228400EBE71A6822F480621A60002207925A6906
:1022940007929A690792079AACE7618D89B202297D
:1022A40030D1102A03D87649D140CE0715D4196805
:1022B40021F480611960196841F40061196059685A
:1022C4000D0514D5202A1AD8072A0AD8012A0ED1B6
:1022D4005A6842F480525A6009E0196841F48061F6
:1022E400ECE7A2F10801674ACA40D007F0D4002203
:1022F40008925A6908929B690893089B99E712F51A
:10230400803FE4E7196841F4806119605968090560
:1023140010D5202A16D8072A06D8012A0AD15A68C5
:1023240042F480525A6005E0A2F10801554ACA40BD
:10233400D207F4D4002209925A6909929B6909933D
:10234400099B76E712F5803FE8E700220A925A6972
:102354000A929B690A930A9BBCE67F0740F194802A
:102364005E6836053FF5B6AE070600F004063ED5B6
:1023740050053CD5002E3DD194F83D20258D94F890
:102384003E10E06AD2B2C9B2C5B9212A18D10828D0
:1023940058D0202856D010F5803F53D05A6822F4E4
:1023A400E0625A6011232363002384F83E30202323
:1023B40084F83D302046FFF70CFD8BE6212A05D03A
:1023C40040297FF487AE222A7FF484AE628D92B2D4
:1023D4001AB95A6822F48062B5E694F83E20402A7D
:1023E40016D120460FB0BDE8F040FFF7F5BC002E33
:1023F4003FF470AE97057FF56DAE212939D1E16ABE
:1024040094F83D20212A7FF465AE628D92B24AB1E0
:10241400626A12F8011B19616262638D013B9BB20F
:10242400638557E608290DD020290BD011F5803F8C
:1024340008D0596821F4E06159601123236384F8BA
:102444003E20B4E75A6822F4E0625A601A6842F403
:1024540000721A6000232022236384F83D2094F83C
:102464003E2084F83E30402A2046A4D1FFF7B3FC36
:1024740030E6402D7FF42EAEB3E700BFEBFFFEFF46
:10248400140001000101000159680E053FF522AE58
:10249400450600F0040140F18680500540F1838038
:1024A400002940F0838094F83D20222A7FF412AE64
:1024B400E06A628D92B2032A14D91A69636A1A70A7
:1024C400636A01336362638D013B9BB26385638DF1
:1024D4009BB2032B7FF4FEAD2268536823F4806320
:1024E4005360F7E5E56A022D3FF473AF012A3FF626
:1024F40070AF7B4A0B91126846F2A811B2FBF1F25D
:1025040002EB82020B920B9A013A0B920B99D1B90E
:10251400226C42F0200222645A6822F4E0625A607B
:102524001A69636A1A70636A01336362638D013BDB
:102534009BB26385202384F83D30204684F83E1006
:10254400FEF744FDC6E51A6812F40072DBD119687F
:1025540021F480611960596821F4E06159601969B6
:10256400636A1970636A01336362638D013B9BB2D2
:102574006385202384F83D3094F83E3084F83E206F
:10258400402B04D122632046FFF77EFCA2E50828F5
:1025940001D0202801D1002300E012232363204628
:1025A400FFF718FC96E500293FF494AD92057FF5FA
:1025B40091ADE26A608D616A80B2042809D15A68DB
:1025C40022F480625A601B690B70636A0133636290
:1025D40023E7608D80B203280CD15868042A20F4C4
:1025E40080605860EFD0022AEDD01A6822F480622D
:1025F4001A60E8E7608D80B20228E4D1042A33D05F
:1026040007D8012A07D0022A2ED0186840F4007097
:1026140004E0102AF9D1186820F4806018601B695E
:102624000B70616A4B1C6362638D013B9BB26385D3
:1026340023681B694B70636A216801336362638D8D
:10264400013B9BB263854B6823F440734B602023AA
:1026540084F83D3094F83E30402B4FF0000384F86A
:102664003E3005D123638EE7186840F48060D5E7D7
:10267400082A90D0202A8DE7206C18B358690025C9
:1026840087072FD596052DD5226C02B19D6994F844
:102694003D2002F02802282A17D15A682F0622F476
:1026A40080625A60C5F3800154BFE268A2690023C6
:1026B40081F00101C9B284F83C3092B22046FEF7A1
:1026C40026FC07E59D695869DAE700220C925969EE
:1026D4000C919B690C930C9B84F83C20FAE400BF9A
:1026E4002C000020C60640F1B180950540F1AE8073
:1026F40094F83D505A6822F4E0625A6000220D9228
:102704005A690D921A6842F001021A600D9A1A6809
:1027140022F480621A605A681005EDB220D505F0E3
:10272400F702222A4AD1A06B0268526892B26285EB
:10273400628D92B21AB1226C42F0040222645A6889
:1027440022F400625A60FEF7F7FF012808D0A06B5C
:10275400794B0365FEF7DEFF10B1A06B036D98475C
:10276400638D9BB213B323685A69510709D51A695B
:10277400636A1A70636A01336362638D013B9BB2BF
:10278400638523685A69520609D51A69636A1A70FF
:10279400636A01336362638D013B9BB26385638D1E
:1027A4009BB21BB1236C43F004032364236C13B367
:1027B40020460FB0BDE8F040FFF7C8BB606B02686D
:1027C400526892B26285628D92B21AB1226C42F062
:1027D400040222645A6822F400625A60FEF7ACFFD5
:1027E4000128BDD0606B544B0365FEF793FF0028AE
:1027F400B6D0606BB2E72A2D06D12363282384F870
:102804003D302046FEF7CCFB94F83D30282B0CD10C
:102814004A4BE362202200232363204684F83D20B0
:1028240084F83E30FEF7A7FB54E4236B222B02D03E
:10283400222D7FF44FAC00232022236384F83D2013
:1028440084F83E302046FEF7ABFB43E401F0F70189
:10285400212900F0040535D1070627D5560525D5CD
:102864003DBB94F83D00628D92B2C0B2002A3FF4A1
:1028740031AC626A12F8015B1D616262628D013AD9
:1028840092B26285628D92B2002A7FF423AC292829
:102894007FF420AC5A6822F480625A6028232163B2
:1028A400204684F83D30FEF78DFB13E4002D3FF401
:1028B40011AC95057FF50EAC628D92B2002A3FF4FF
:1028C40009ACA5E5400627D5510525D53DBB94F8AF
:1028D4003D20618D89B2D2B200293FF4FBAB196966
:1028E400636A1970636A01336362638D013B9BB24F
:1028F4006385638D9BB2002B7FF4ECAB2A2A7FF4B3
:10290400E9AB2268536823F4806353602223236372
:10291400282384F83D3095E7002D3FF4DBAB920586
:102924007FF5D8AB628D92B2002A3FF4D3AB1A691B
:10293400636A1A7049E600BF911E00080000FFFF99
:10294400F8B503685F695E6890F83E2017F48075F7
:102954000446D2B206D016F480751EBF6FF480719F
:1029640059610125B80506D5F10542BF6FF4007120
:1029740045F002055961780536D5F10534D5608DE9
:1029840094F83D10D4F830C0202A80B2C9B25FD187
:1029940000285DD101F0F700212804D0282957D15F
:1029A400BCF1210F54D194F83D20E16A0829D2B238
:1029B40001D020292AD1282A28D12E4AE2625A6835
:1029C40022F4E0625A606FF480625A611A6822F459
:1029D40080621A60002320222363204684F83D206D
:1029E40084F83E30FEF7C7FA3A053FD5F3053DD5E6
:1029F40023686FF4006245F008055A61236C1D4397
:102A040025642046BDE8F840FFF7A0BA212A1BD16F
:102A14001849E16222630021202284F83D2084F8D1
:102A24003E105A6822F4E0625A606FF480625A6180
:102A34001A6822F480621A605A69100648BF196144
:102A44002046FEF7BFFACFE76FF480625A61CBE706
:102A54006FF48061102A596145F0040501D0402AC1
:102A6400C2D11A6842F400721A60BDE7002DC5D1C4
:102A7400F8BD00BF0000FFFF90F83D007047006CF8
:102A84007047F7B5044610B390F89534056803F021
:102A9400FF021BB980F8942404F0FCFB0323B5F176
:102AA400A04F84F8953404BF0023A371206801F07B
:102AB400F5FD237C8DF80030251D95E80E00206877
:102AC40001F032FD014630B1022384F8953401252A
:102AD400284603B0F0BD206801F0E6FD0028F3D1DC
:102AE400267904F1140301270246C1B28E4203F190
:102AF40024031BD8002104F515730A46C8B2864284
:102B040003F1240320D8237C8DF8003095E80E00CF
:102B1400206801F045FE05460028D5D101236074E4
:102B2400206884F8953402F070F9D1E723F80A0C90
:102B340043E9072203F8237C03F8241C03F8202C20
:102B440043F8142C0130D0E743E9072203F8232C7F
:102B540003F8240C03F8202C43F8142C0131CDE79E
:102B640010B50446006894F89434012B15D0012361
:102B740084F89434C3685B0606D5637B012B02BFDB
:102B8400836B43F48033836301F082FD206802F099
:102B94002EF9002084F8940410BD0220FCE710B53F
:102BA40090F89424012A04460AD0012280F894243F
:102BB4004174006802F00BF9002084F8940410BDFD
:102BC4000220FCE770B50546242401F00F0011F043
:102BD400800F00FB04F414BF04F1140104F5157113
:102BE40005EB040615BF491949190124002414BF33
:102BF400747586F85542C2F30A028A604A780870EE
:102C04000B7102B14883022B04BF00234B7195F86A
:102C14009434012B09D00123286885F8943401F0F9
:102C240084FE002085F8940470BD0220FCE701F0C6
:102C34000F02242311F0800F02FB03F310B514BF1D
:102C440003F1140103F51571044618BF091918445A
:102C54000BBF091901230023437508BF80F85532BF
:102C64000A7094F89434012B09D00123206884F865
:102C7400943401F099FE002084F8940410BD0220DD
:102C8400FCE738B51546242401F00F02544304F53B
:102C940015710444C4E99853002384F8553284F828
:102CA4005422C4F868328279012A014408BFC4F866
:102CB4007052006801F024FF002038BD01F00F01BC
:102CC400242303FB0100D0F86802704738B5154689
:102CD400242401F00F02544304F114010444C4E910
:102CE40008530023A36201236375227582799A42F3
:102CF400014408BF2563006801F002FF002038BDCD
:102D040038B5037901F00F05AB4204462BD311F01B
:102D1400800F4FF024031DD06B4303F114010344CF
:102D2400012201445A7501238B700D7094F8942488
:102D34009A421AD0206884F8943401F0F4FF2DB933
:102D4400A179206804F29C4202F0AEF8002084F8D5
:102D5400940438BD4B4303F5157103440022014428
:102D640083F85522DFE70120F3E70220F1E738B5C5
:102D7400037901F00F029342044625D3242311F072
:102D8400800F02FB03F314BF03F1140103F5157163
:102D9400184415BF09190919012300234FF0000530
:102DA40014BF437580F855328D700A7094F89434CA
:102DB400012B0BD00123206884F8943401F0DEFF4A
:102DC40084F89454284638BD0120FCE70220FAE731
:102DD40001F00F03242253430A064CBF03F11401EC
:102DE40003F515710144006801F034BE2DE9F04F7C
:102DF400066889B00446304602F043F80390002880
:102E040040F05681206802F00EF8002800F050814E
:102E1400D6F808382068C3F30D23C4F8D43402F07C
:102E240002F82368870742BF5A6902F002025A6116
:102E3400184601F0F8FFC00606F500652DD5226896
:102E4400936923F010039361D6F8208008F4F013FB
:102E5400B3F5802F08F00F0740F02D8147F6F0738B
:102E640018EA030F14D0242303FB0747C8F30A19F5
:102E7400D7F860124A46304601F034FFD7F8603282
:102E84004B44C7F86032D7F868324B44C7F868320D
:102E94002268936943F010039361206801F0C3FF33
:102EA400010300F11B81206801F0BDFF42030CD532
:102EB400206801F0C4FF2746049006F5106B4FF01C
:102EC400000A049B002B40F0D381206801F0ABFF83
:102ED400002813DA6B6823F001036B6094F8CC3498
:102EE400012B40F06C82002184F8CC14204600F0C1
:102EF400E8FA2268536903F000435361206801F043
:102F040092FF01050AD5AB68DA0702D5204604F022
:102F140035FA2268536903F400635361206801F0B1
:102F240082FFC30433D56B68206823F001036B6010
:102F3400102101F0E9FB207906F510634FF67F318B
:102F4400039A904200F23F82EB6943F00113EB6174
:102F5400E37B002B00F05482D5F8843043F00B035C
:102F6400C5F884306B6C43F00B036B64D6F80038FF
:102F7400206823F4FE63C6F8003804F29C42A17969
:102F840001F092FF2268536903F48053536120686F
:102F940001F049FF870416D5206801F076FF206808
:102FA40001F0B8FCE071276800F002FDE279014607
:102FB400384601F0FDFA204604F0D3F9226853693B
:102FC40003F400535361206801F02DFF000707D577
:102FD400204604F0C2F92268536903F008035361E0
:102FE400206801F020FF010600F11582206801F03D
:102FF4001AFFC2020CD5A04606F5126901272379EF
:10300400BB4200F221822268536903F480135361A6
:10301400206801F008FF83022DD594F804E02346CC
:1030240006F5326001218E4520D993F87CC20268EE
:10303400BCF1010F40F01E82002A80F21B82D4F8FA
:10304400D47402F4803207F00107BA4240F01282CD
:1030540083F87BC2B26942F08002B26172691706DA
:1030640000F108826B6843F400736B602268536953
:1030740003F400135361206801F0D5FE410007D525
:10308400204604F0B5F92268536903F08043536184
:10309400206801F0C8FE42070AD523685D686B0703
:1030A40002D5204604F0A8F9226853682B435360E4
:1030B40009B0BDE8F08FB3F5402F7FF4E9AE0822E4
:1030C40004F29C41304601F00DFE242303FB074724
:1030D400C8F30A18D7F868324344D7E6206801F0E9
:1030E400A6FE06F530680490A2460027049B002B38
:1030F4003FF4D9AE049BDB0779D55FFA87FB2068E0
:10310400594601F0A4FE10F0010F81461FD020683B
:103114000123C8F8083094F806C0016C00F5306348
:1031240003EB4713BCF1010F9A6840F08B8012F057
:10313400080F07D0B048814209D9120407D54FF4CB
:10314400004203E012F0200F5AD020229A6019F0B6
:10315400080F21D00823C8F808302368A6491A6C40
:1031640003F5306303EB47138A42986804D90104DA
:1031740044BF4FF4004098602046059204F0D6F80E
:10318400059A9D498A4207D9A179012904D1206869
:1031940004F29C4201F088FE19F0100F1CBF1023AA
:1031A400C8F8083019F0020F14D073691B0642BF27
:1031B4006B6843F480636B609AF85732012B06D135
:1031C40000238AF857325946204604F009F90223AD
:1031D400C8F8083019F0200F1CBF2023C8F80830A5
:1031E40019F4005F1CBF4FF40053C8F80830049B67
:1031F4005B080137049308F120080AF1240A75E7F3
:10320400DFF8F4C1614501D9120498D41A69DAF8D7
:103214007432C2F312029B1ACAF868326FB9D4F836
:1032240064222AB904F29C42012101F03DFE04E02B
:10323400D4F860221A44C4F860225946204604F0A7
:103244007BF884E7DFF8B4C1614507D111043FF589
:1032540076AF9006F1D520229A60EEE7002FECD1EC
:10326400D4F86432002BE8D104F29C423946DCE7FE
:10327400049BD80740F19A805FFA8AF32068079389
:10328400194601F0EDFD10F0010F804620D06B6B64
:1032940001210AF00F0201FA02F223EA02036B632E
:1032A400CBF80810A17901290DD1D7E907231344DC
:1032B4003B62BAF1000F06D1636A23B9206804F2B5
:1032C4009C4201F0F1FD5FFA8AF1204604F03DF8DA
:1032D40018F0080F1CBF0823CBF8083018F0100FA3
:1032E4001CBF1023CBF8083018F0400F1CBF40233C
:1032F400CBF8083018F0020F10D05146304601F0D8
:1033040003FAFB7D012B06D10023FB755FFA8AF1DA
:10331400204604F069F80223CBF8083018F0800F37
:1033240044D0D7E909329A4240D8A3EB0208FB699A
:1033340021680591984528BF984601F5106308F166
:10334400030803EB4A134FEA98080693069B99690E
:103354007B6A89B2414527D39A420BD3059B0AF075
:103364000F00D3F834280121814022EA0102C3F876
:1033740034281BE0A3EB0209FB69079A05989945D9
:1033840028BF9946A3790093396A1FFA89F301F09B
:10339400A3FB3B6ABA6A09F103084B444A444FEA67
:1033A40098083B62BA62D1E79A42D7D2049B5B0881
:1033B4000AF1010A049324370BF1200B81E520461E
:1033C40003F0F4FF95E599601A6822F400121A607C
:1033D400C3F80812D3F8002222F40012C3F8002222
:1033E400D3F8002242F00062C3F80022039A0132AB
:1033F40003922033A4E500BF0A30544F0A31544FDE
:103404006B6943F4005343F02B036B612B6943F066
:103414000B032B61AAE5B36923F08003B361012791
:1034240004F257284FF024092379BB427FF6DEAD1E
:1034340009FB07F318F80330012B03D1F9B2204636
:10344400FFF7C6FC0137EFE798F83C30D9F80020C5
:10345400012B09D1002A07DA67F07F0188F83B3095
:10346400C9B22046FFF7B4FC013708F1240809F17A
:103474002009C4E5013124332030D4E5006870B557
:10348400436A120419B913438362002070BD846A2D
:103494004E1E03EB14430024B44205D33F3100EB2A
:1034A400810013434360F0E704F1400500EB850518
:1034B40001346D6803EB1543EEE70368002059629D
:1034C400704770472DE9F341044640B30368DE07B3
:1034D40010D423689D075BD42368190700F19D80ED
:1034E40023685A0700F1BD80A369002B40F02481B2
:1034F40000202CE08D4B9A6802F00C02042A07D0BD
:103504009A6802F00C02082A0BD15B68590208D5AC
:10351400864B1B689A03DCD56368002BD9D1012044
:1035240015E06368814DB3F5803F13D12B6843F4F4
:1035340080332B60FDF7CEFD7C4E054633689B033C
:10354400C7D4FDF7C7FD401B6428F7D9032002B098
:10355400BDE8F081B3F5A02F04D12B6843F4802398
:103564002B60E3E72A6822F480322A602A6822F476
:1035740080222A60002BDDD1FDF7ACFD06462B68C6
:103584009F03A6D5FDF7A6FD801B6428F7D9DDE7C8
:10359400664B9A6812F00C0F07D09A6802F00C027E
:1035A400082A11D15B685D020ED4604A136899073A
:1035B40002D5E368012BB2D11368216923F0F80323
:1035C40043EAC103136087E7E268594BB2B10122B1
:1035D4001A60FDF77FFD554D06462B689B0707D5FE
:1035E4002B68226923F0F80343EAC2032B6073E7D4
:1035F400FDF770FD801B0228EFD9A7E71A60FDF7DD
:1036040069FD4A4E054633689F077FF565AFFDF7B0
:1036140061FD401B0228F6D998E76269444B82B1E8
:103624000122C3F8802EFDF755FD404E0546736F09
:103634009B073FF555AFFDF74DFD401B0228F6D91A
:1036440084E7C3F8802EFDF745FD384E0546736FB9
:103654009F077FF545AFFDF73DFD401B0228F6D9D6
:1036640074E7324B1A6C12F0805228D101921A6C12
:1036740042F080521A641B6C03F080530193019B47
:1036840001272C4D2B68D8051BD5A368274D012B8A
:1036940027D12B6F43F001032B67FDF71BFD234E4E
:1036A400054641F28838336F9A0739D5002F3FF425
:1036B4001BAF1E4A136C23F08053136414E70027D6
:1036C400DFE72B6843F480732B60FDF703FD0646A8
:1036D4002B68D905D9D4FDF7FDFC801B0228F7D946
:1036E40034E7052B04D12B6F43F004032B67D0E799
:1036F4002A6F22F001022A672A6F22F004022A6745
:10370400002BCAD1FDF7E6FC41F2883806462B6F40
:103714009B07CBD5FDF7DEFC801B4045F7D915E7A9
:10372400FDF7D8FC401B4045BDD90FE700380240E7
:103734000000474200700040374DAA6802F00C02B6
:10374400082A3ED0022B354B4FF000021A662BD1CB
:10375400FDF7C0FC06462B6899011FD4D4E9073253
:103764001343626A43EA8213E26A43EA0263A26A87
:103774005208013A43EA02436B60284B264D01226A
:103784001A66FDF7A7FC04462B689A013FF5B0AE14
:10379400FDF7A0FC001B0228F6D9D7E6FDF79AFC3A
:1037A400801B0228D7D9D1E6FDF794FC04462B6888
:1037B4009B017FF59DAEFDF78DFC001B0228F6D919
:1037C400C4E6012B3FF4ABAE6B68E26903F48001FD
:1037D40091427FF4A4AE216A03F03F028A427FF44F
:1037E4009EAE616A47F6C0721A40B2EB811F7FF445
:1037F40096AEA26A520803F44031013AB1EB024F8B
:103804007FF48DAEE26A03F07063B3EB026F14BF12
:10381400012000209BE600BF003802400000474220
:10382400134908B58B6803F00C03042B1CD0082B38
:103834001CD14A684B68496813F4800314BF0D48CF
:103844000D48C1F3881118BF002302F03F02A1FB09
:103854000001FCF7A5FC064B5B68C3F3014301338D
:103864005B00B0FBF3F008BD0248FCE70248FAE74E
:103874000038024000127A000024F4002DE9F041DF
:103884000D46044610B90120BDE8F081434B1A6887
:1038940002F007028A4228D321688F072DD4C80773
:1038A40040D43E4B1A6802F00702AA4265D8226847
:1038B40051076BD4130707D5394A2169936823F458
:1038C400604343EAC1039360FFF7AAFF344B354AD0
:1038D4009B68C3F30313D35CD840334B1860334B5A
:1038E4001868FDF7ADFB0020CEE7CAB21A701B685A
:1038F40003F007038B42C6D1CEE7294B11F0040F26
:103904001EBF9A6842F4E0529A600E0742BF9A685A
:1039140042F460429A609A68A06822F0F00202437E
:103924009A60BCE762681E4B012A1CD11B6813F421
:10393400003FA8D01A4EB36823F003031343B360C7
:10394400FDF7C8FB41F288380746B368626803F0A4
:103954000C03B3EB820FA4D0FDF7BCFBC01B4045A6
:10396400F3D9032090E7911E01291B6802D813F0B4
:10397400007FDEE713F0020FDBE7EAB21A701B6880
:1039840003F00703AB427FF47EAF90E70449E0689D
:103994008B6823F4E05303438B608BE7003C0240C5
:1039A40000380240348A00082C0000200400002063
:1039B400014B1868704700BF2C000020044B054AD7
:1039C4009B68C3F38223D35C034A1068D8407047D2
:1039D400003802402C8A00082C000020044B054AC1
:1039E4009B68C3F34233D35C034A1068D8407047E2
:1039F400003802402C8A00082C00002070477047D1
:103A0400036870B5DD681E69B10704460DD5AA07C1
:103A14000BD56FF002021A61012202779B699B07A2
:103A240069D000F05CFD00232377710710D56A0785
:103A34000ED523686FF004021A61022222779B6973
:103A440013F4407F20465CD000F049FD0023237727
:103A540033070FD528070DD523686FF008021A61C4
:103A640004222277DB699907204650D000F037FD05
:103A740000232377F20610D5EB060ED523686FF0EA
:103A840010021A6108222277DB6913F4407F204672
:103A940043D000F024FD00232377F00708D5E9077D
:103AA40006D523686FF001021A61204600F0F4FC89
:103AB400320608D52B0606D523686FF080021A61FA
:103AC400204600F0A2F8700608D5690606D52368DA
:103AD4006FF040021A612046FFF791FFB20622D52B
:103AE400AB0620D523686FF0200220461A61BDE89A
:103AF400704000F089B800F0F0FC2046FFF77EFF2C
:103B040091E700F0EAFC2046FFF778FF9EE700F01B
:103B1400E4FC2046FFF772FFAAE700F0DEFC204633
:103B2400FFF76CFFB7E770BD1F4A036890420ED0E1
:103B3400B0F1804F0BD0A2F57C42904207D002F541
:103B44008062904203D002F58062904208D14A68B4
:103B540023F070031343CA6823F4407313430AE049
:103B6400124A9042F7D002F580629042F3D002F5F7
:103B740080629042EFD04A6923F0800313430360CC
:103B84008B68C3620B688362074B984204BF0B695E
:103B94000363012343610369DB0742BF036923F025
:103BA40001030361704700BF000001400040014071
:103BB40010B5044630B390F83D3003F0FF021BB952
:103BC40080F83C2001F0C4FE0223206884F83D30D4
:103BD400211DFFF7A9FF012384F84630002084F853
:103BE4003E3084F83F3084F8403084F8413084F823
:103BF400423084F8433084F8443084F8453084F803
:103C04003D3010BD0120FCE770477047026802F1A7
:103C14000C0353E8003F23F490730C3242E8003164
:103C240002680029F2D102F1140353E8003F23F0A3
:103C3400010302F1140C4CE800310029F3D1036BA9
:103C4400012B0BD102F10C0353E8003F23F01003C6
:103C540002F10C0C4CE800310029F3D1202380F848
:103C640042300023036370470268C16838B51369A2
:103C740023F440530B431361054683680069D168FC
:103C8400034368690343E86921F4164121F00C01F8
:103C940003430B43D3605369A96923F440730B4373
:103CA40053611F4B9A4203D003F580639A4224D197
:103CB400FFF794FEEA691921B2F5004FD5E90043F4
:103CC400A0FB01011CD1DA184FF0000545EB0503F8
:103CD400FCF766FA6422B0FBF2F102FB1103DB008D
:103CE4003233B3FBF2F303F007025B0002EB011281
:103CF40003F4F8731344A36038BDFFF75FFED9E7FC
:103D04009A009B0FFCF74CFA6422B0FBF2F102FB21
:103D140011031B013233B3FBF2F303EB0113EAE7A4
:103D240000100140704710B5044648B390F8413084
:103D340003F0FF021BB980F84020FFF7F3FF22686D
:103D4400242384F84130D36823F40053D3602046FD
:103D5400FFF78AFF23681A6922F490421A615A69AC
:103D640022F02A025A61DA6842F40052DA60002032
:103D74002023606484F8413084F84230606310BDCD
:103D84000120FCE710B5044668B390F8413003F015
:103D9400FF021BB980F84020FFF7C4FF22682423E8
:103DA40084F84130D36823F40053D3602046FFF7EE
:103DB4005BFF23681A6922F490421A615A6922F05F
:103DC40022025A615A6942F008025A61DA6842F4DE
:103DD4000052DA6000202023606484F8413084F8C3
:103DE4004230606310BD0120FCE790F84130202B85
:103DF40010D189B182B1C284016282840168002336
:103E04002122436480F84120CA6842F08002CA60DB
:103E140018467047022070470120704708B5806B30
:103E24000023C385C38401F055FF08BD704790F893
:103E34004230222B07B542D181680268836AB1F50A
:103E4400805F3FD1016900293FD15268C2F3080263
:103E540023F8022B8362C38D013B9BB2C385002BE5
:103E64002DD10268D16821F02001D160D16821F4FC
:103E74008071D160516921F001015161202280F8E3
:103E840042204363026B012A026828D1036302F1D2
:103E94000C0353E8003F23F0100302F10C0C4CE830
:103EA40000310029F3D11368DB0605D501911368AD
:103EB400019353680193019B818DFFF7B7FF03B012
:103EC4005DF804FB39B9016929B95268D2B21A7094
:103ED400836A0133BEE7526802F07F02F7E701F01C
:103EE400F3FEECE703681A6873B51607D9685D69D1
:103EF400044608D1960668D58D0666D502B0BDE89D
:103F04007040FFF794BF05F0010001F4907505437C
:103F14005BD0D60705D5CD0542BF636C43F00103E2
:103F24006364530704D518B1636C43F002036364FC
:103F3400960704D518B1636C43F004036364150752
:103F440007D501F0200303431EBF636C43F008034D
:103F54006364636C002B32D0920604D58B0602D5C1
:103F64002046FFF764FF26687369626C03F0400320
:103F740002F0080253EA0205204622D0FFF746FE6B
:103F840073695E0618D5226802F1140353E8003FF2
:103F940023F04003143242E800310029F3D1E06BEE
:103FA40050B1744B0365FDF7B5FB40B1E06B036D95
:103FB40002B0BDE870401847204601F08BFE02B005
:103FC40070BD01F087FE6564F9E7206B012840F0BD
:103FD4009580D50640F19280C80640F18F8000227A
:103FE40001921A6801925A680192019A5A6952061A
:103FF4004ED5E16B0A68526892B2002ADFD0A08DD8
:104004009042DCD9E285CA69B2F5807F36D003F1EB
:104014000C0252E8002F22F4807203F10C0040E8F5
:1040240000210029F3D103F1140252E8002F22F0F9
:10403400010203F1140040E800210029F3D103F147
:10404400140252E8002F22F0400203F1140040E869
:1040540000210029F3D1202284F84220216303F1B6
:104064000C0252E8002F22F0100203F10C0040E889
:1040740000210029F3D1E06BFDF70EFB02236363FB
:10408400E38DA18DC91A89B22046FFF7CFFE96E7CA
:10409400E28DE18D89B292B2002990D0A18D891A66
:1040A40089B200298BD003F10C0252E8002F22F4CC
:1040B400907203F10C0545E800200028F3D103F1C8
:1040C400140252E8002F22F0010203F1140545E81E
:1040D40000200028F3D1202284F84220206303F139
:1040E4000C0252E8002F22F0100203F10C0545E8FF
:1040F40000200028F3D102236363C5E7160628D500
:104104000D0626D594F84120212A7FF458AFA168E2
:10411400226AB1F5805F17D12169A9B932F8021B6F
:10412400C1F3080159602262E28C013A92B2E2843E
:10413400002A7FF444AFDA6822F08002DA60DA6899
:1041440042F04002DA603AE7511C216212785A6068
:10415400EAE750067FF533AF4A067FF530AFDA68F9
:1041640022F04002DA60202384F84130204601F036
:10417400AEFD24E7213E000890F84030012B11D019
:104184000268242380F84130D36823F00C0343F001
:104194000803D360202380F84130002380F84030A6
:1041A400184670470220704790F84030012B11D018
:1041B4000268242380F84130D36823F00C0343F0D1
:1041C4000403D360202380F84130002380F840307A
:1041D400184670470220704790F8412090F842003A
:1041E40010437047C28500238285026943642223F9
:1041F40080F84230816203681AB1DA6842F480724E
:10420400DA605A6942F001025A61DA6842F0200227
:10421400DA600020704770B590F84260202E07D114
:1042240041B13AB100240463FFF7DCFF204670BDBE
:104234000220FCE70120FAE7836810B504462BB19D
:104244000322014698470023C4E9023310BD00004D
:104254001B4B984221D0B0F1804F20D0A3F57C4372
:1042640098421ED003F5806398421CD003F5806306
:1042740098421AD003F59A33984218D003F5806314
:10428400984216D003F58063984214D04FF6FF731A
:104294004FF6FF72934210D1FEE70023F8E70120A6
:1042A40070470220704703207047042070470520A0
:1042B400704706207047072070470020704700BFF2
:1042C40000000140014670B5044651F8100FFFF795
:1042D400BFFF0546084601F06DFA094A002342F87B
:1042E400253004F16006E36004F1B005B54204D062
:1042F400103D2846FCF769F9F8E7204670BD00BF79
:10430400F4040020F8B504460846FFF7A1FF23692A
:1043140003B1FEE71B4D84F82C3004F10C0245F880
:10432400202004F110060E22C4E90C33C4E90E3334
:10433400C4E91033C4E916232161A36484F84C3022
:1043440084F84D30E460304601F0A4F904F16005CE
:1043540004F1B00728461035FFF76EFFBD42F9D1CE
:104364000023C4E900334FF6FF72C4E90632C4E9FE
:104374000833A36063618023A3623046BDE8F8403C
:10438400FFF716BCF404002010B5074C206810B1E8
:104394000430FFF735FBA06920B1BDE810400430BC
:1043A400FFF72EBB10BD00BFF4040020034B1868B8
:1043B40010B10430FFF724BB704700BFF4040020A1
:1043C400034B586810B10430FFF71ABB704700BFA5
:1043D400F4040020034B986810B10430FFF710BBBD
:1043E400704700BFF4040020034BD86810B10430B8
:1043F400FFF706BB704700BFF4040020034B1869A5
:1044040010B10430FFF7FCBA704700BFF404002079
:10441400034B586910B10430FFF7F2BA704700BF7C
:10442400F4040020034BD86910B10430FFF7E8BA54
:10443400704700BFF40400200022C0E90022C0E954
:1044440002227047F8B504460E4600F1600500F1FB
:10445400B00728461035FFF7EFFFBD42F9D100231E
:10446400204623613146FFF74DFF2046F8BD8268A0
:1044740010B50AB904F020FABDE81040C368184723
:1044840008B500B9FEE701F003F90068836E13B1C3
:104494006030FFF7ECFF08BDFFF7F2BF10B500B9BD
:1044A400FEE7037F013B072B10D8DFE803F0041479
:1044B4000F100F0F0F12012401F0EAF80068063400
:1044C40000EB041083680BB1FFF7D1FF10BD032488
:1044D400F2E70424F0E70224EEE7FFF7DFBFFFF77B
:1044E400DDBF82B0002302460193019B0133019397
:1044F400019BB3F1706F15D81369002BF5DA002313
:104504000193136943F001031361019B0133019388
:10451400019BB3F1706F05D8106910F00100F4D15C
:1045240002B070470320FBE784B038B505AD85E8D9
:104534000E009DF81930012B044627D1836B23F418
:1045440080338363C36823F4840323F04003C3608C
:10455400C36823F44013C3609DF82030012B02BFCD
:10456400C36843F48013C360FFF7BBFF9DF81630A4
:10457400012B07D1A36843F00603A360A36843F0AB
:104584002003A360BDE8384004B07047C36843F01B
:104594004003C360FFF7A5FF9DF81D3023B9A36B4B
:1045A40043F48033A363E1E7A36B23F48033F9E797
:1045B400022A4AD1274B284A0B44934239D9274B24
:1045C400274A0B44934236D9264AA1F57403A3F52E
:1045D4001053934231D9244AA1F18373A3F5E743DD
:1045E40093422CD3214B224A0B44934229D9214B89
:1045F400214A0B44934226D3204B214A0B44934235
:1046040023D3204AA1F1B773A3F5585393421ED381
:104614001D4B1E4A0B4493422CBF06230723C2683A
:1046240022F47052C260C26842EA8323C36000204D
:1046340070470F23F3E70E23F1E70D23EFE70C2375
:10464400EDE70B23EBE70A23E9E70923E7E7082370
:10465400E5E700BF405327FFFF340C00401E1BFF5B
:104664003F420F007F4F120020D6130060B6E5FED4
:104674005FE3160000D3CEFE40771B00C05BB3FEA1
:10468400C091210020753800E05459FEE09C41009F
:10469400836843F00103836000207047836823F03C
:1046A400010383600020704738B5C368012923F0F3
:1046B400C04305460C46C36014D1C36843F000539D
:1046C400C36000240A20FCF70BFD6B69D90704F1D1
:1046D4000A0402D4C82CF5D1C824A4F1C803584252
:1046E400584138BD71B9C36843F08043C3600A20A0
:1046F400FCF7F6FC6B69DA0704F10A04EDD5C82C63
:10470400F5D1E9E70120ECE782B0002302460193EA
:10471400019B01330193019BB3F1706F15D81369A9
:10472400002BF5DA8901002341F020010193116186
:10473400019B01330193019BB3F1706F05D810699C
:1047440010F02000F4D102B070470320FBE782B0E0
:10475400002302460193019B01330193019BB3F1B2
:10476400706F13D81369002BF5DA0023019310231B
:104774001361019B01330193019BB3F1706F05D861
:10478400106910F01000F4D102B070470320FBE769
:10479400D0F800381943C0F8001800207047000012
:1047A40084B02DE9F843044609A880E80E000023EC
:1047B4009DF824609DF82E50194603F1400204EB45
:1047C400820201330F2B5160F7D104F50067002DED
:1047D4006CD17B6843F002037B60A36B43F400134A
:1047E400A363A36B23F40023A363A36B23F48023A9
:1047F400A3630023C4F8003E9DF82930012B5FD148
:104804009DF82710002959D12046FFF7C1FF102138
:104814002046FFF779FF01462046FFF798FF08433B
:10482400C0B2002300383B6118BF01207B6104F54E
:104834001062FB6119464FF0904C4FF0006E4FF63A
:104844007F389E423ED8002204F5306311464FF073
:10485400904C4FF0006E4FF67F38964245D83B6936
:1048640023F480733B610023A3616FF08043636191
:104874009DF826301BB9A36943F01003A361A26914
:10488400234B1343A3619DF82A301BB1A36943F062
:104894000803A361012D01BFA36943F0804343F0E2
:1048A4000403A361BDE8F84304B07047A36B23F489
:1048B4000013A363A36B43F4002399E71946A3E70A
:1048C4000321A1E7D2F80090B9F1000F0BDA3BB94C
:1048D400C2F800E011610133C2F808802032B0E769
:1048E400C2F800C0F6E71160F4E7D3F80090B9F11C
:1048F400000F0BDA3AB9C3F800E019610132C3F8CA
:1049040008802033A9E7C3F800C0F6E71960F4E78C
:1049140000383C80D0F8083813F0060004D013F0B7
:10492400020F14BF02200F20704730B50C7801220B
:1049340004F00F05AA404D78012D00F5006300EB4B
:10494400441019D1DD692A43DA61D0F800391A0418
:1049540010D48A68D0F80059C2F30A030A792B43A9
:1049640043EA824343EA845343F0805343F40043CD
:10497400C0F80039002030BDDC6944EA0242DA6143
:10498400D0F8003B1B04F5D48B68D0F8002BC3F39C
:104994000A0313430A7943EA824343F0805343F4FE
:1049A4000043C0F8003BE5E710B50A7849780129CF
:1049B40000EB421300F5006002F00F0222D1D3F89D
:1049C400001900290BDAD3F8001941F00061C3F88B
:1049D4000019D3F8001941F08041C3F80019C46BE1
:1049E400012101FA02F224EA0204C463C16921EA42
:1049F4000202C261D3F80019144A0A40C3F800291C
:104A0400002010BDD3F8001B00290BDAD3F8001BDB
:104A140041F00061C3F8001BD3F8001B41F0804152
:104A2400C3F8001BC46B4FF4803101FA02F224EA8C
:104A34000204C463C16921EA0202C261D3F8001B03
:104A4400034A0A40C3F8002BDAE700BF007833ECCE
:104A54000078F3EF82B000234A7801930B78012A9F
:104A64004FEA43131ED100F51060C118C258002A42
:104A740002DB002002B07047C25842F00062C2500C
:104A8400C25842F08042C25042F21072019B01337C
:104A94000193019B934201D90120EBE70B68002BA2
:104AA400F4DBE6E700F53060C118C258002AE0DA0A
:104AB400C25842F00062C250C25842F08042C25012
:104AC40042F21072019B01330193019B9342E3D89C
:104AD4000B68002BF6DBCCE710B59DF8084044B911
:104AE400033301329B0800EB023001EB830399424C
:104AF40001D1002010BD51F8042B0260F7E700003B
:104B04002DE9F7434B7891F800E091F804C0724C1A
:104B1400012B1746714B0A6900EB4E1540F08D804E
:104B240005F5106642BB326913403361336943F4BF
:104B340000233361336923403361012F52D1CB69A0
:104B440003B17361BCF1010F0CD1D0F8083813F430
:104B5400807FD5F800390CBF43F0005343F08053F5
:104B6400C5F80039D5F8003943F00443C5F80039D5
:104B7400002003B0BDE8F083D6F8108008EA0404EE
:104B840034613469234033618B68BEF1000F0DD169
:104B940093423CBF0B611A46336943F400233361EB
:104BA4003369C2F312041C433461C6E79C18013C08
:104BB400B4FBF3F44A4BD6F810801FFA84F903EAE5
:104BC400C44444EA0804BCF1010F3461E8D13369F8
:104BD40023F0C043336134694FEA497303F0C0439F
:104BE4002343DCE7D5F80039BCF1010F43F004435B
:104BF400C5F800390B690CD0002BB9D0D0F8342893
:104C04000EF00F0E012303FA0EF31343C0F83438E9
:104C1400AEE7D0F8082812F4807FD5F800290CBF3D
:104C240042F0005242F08052C5F800290097C9684A
:104C34009BB27246FFF750FF9AE7D5F8108B08EA4B
:104C44000404C5F8104BD5F8104B234005F5306625
:104C540033618B68BEF1000F27D102B10B610B6287
:104C64003269C3F3120313433361336943F40023FA
:104C7400012F336102D1CB6803B17361BCF1010F21
:104C84000CD1D0F8083813F4807FD5F8003B0CBF62
:104C940043F0005343F08053C5F8003BD5F8003B84
:104CA40043F00443C5F8003B62E7002AD8D09C18BF
:104CB4000B4AD6F810E0013CB4FBF3F4A4B202EAC8
:104CC400C442634342EA0E020B6232613269C3F3A7
:104CD40012031343CCE700BF0000F8FFFFFF07E017
:104CE4000000F81F70B50023940800F5805502F009
:104CF4000302A34204D301EB840132B9084670BD18
:104D04002E6841F823600133F3E700F58050002357
:104D14000468D80024FA00F05854013398B282424F
:104D2400F7D15018EBE74A780B78012A00EB4310CF
:104D340012D1D0F80029002A06DB2BB1D0F80039B3
:104D440023F08043C0F80039D0F8003943F400134D
:104D5400C0F8003900207047D0F8002B002A06DB89
:104D64002BB1D0F8003B23F08043C0F8003BD0F8CF
:104D7400003B43F40013C0F8003BEBE70B784A78A0
:104D840000EB43100B79012AA3F10203DBB20FD12C
:104D9400D0F80029012B22F40012C0F8002905D80C
:104DA400D0F8003943F08053C0F800390020704730
:104DB400D0F8002B22F40012012BC0F8002B9EBF68
:104DC400D0F8003B43F08053C0F8003BEEE7D0F846
:104DD400003823F4FE63C0F80038D0F80038090125
:104DE40001F4FE611943C0F8001800207047D0F8A0
:104DF400003E23F00303C0F8003ED0F8043823F04B
:104E04000203C0F8043800207047D0F8003E23F0B5
:104E14000303C0F8003ED0F8043843F00203C0F89E
:104E24000438002070474269806910407047D0F808
:104E3400183800F50060C0691840000C7047D0F8BD
:104E4400183800F50060C069184080B2704700EB64
:104E5400411100F50060D1F8082B406910407047FB
:104E6400D0F81028D0F8343800EB411001F00F01CD
:104E7400CB4000F51060DB018068DBB213431840BF
:104E84007047406900F001007047D0F800396FF3B3
:104E94000A03C0F80039D0F8043843F48073C0F82A
:104EA400043800207047000030B5056C104CA54252
:104EB40000F5306303D9D0F8004B002C16DB002436
:104EC4001C611C6944F400241C611C6944F018042E
:104ED4001C611C69012944F0C0441C6101BF5A6172
:104EE400D0F8003B43F08023C0F8003B002030BDE5
:104EF4000A30544F03F07EB903F084B986B000231E
:104F0400052853D8DFE800F003111E2B3845009321
:104F1400274B28481A6B42F001021A631B6B03F0FB
:104F240001030093009B06B070470193204B224875
:104F34001A6B42F002021A631B6B03F00203019323
:104F4400019BF0E702931A4B1C481A6B42F00402CF
:104F54001A631B6B03F004030293029BE3E70393BE
:104F6400134B17481A6B42F008021A631B6B03F0C9
:104F740008030393039BD6E704930D4B11481A6B64
:104F840042F010021A631B6B03F010030493049B9A
:104F9400C9E70593064B0C481A6B42F080021A636A
:104FA4001B6B03F080030593059BBCE70020BAE765
:104FB40000380240000002400004024000080240A1
:104FC400000C024000100240001C024008B50449D5
:104FD40000F026FBC0F3C430122800D9FEE708BD58
:104FE400D48D0008A0F58053013B022B00D9FEE7C5
:104FF4006FF47F631844704702680D4B9A4282B085
:105004000BD1002301930B4B5A6C42F480725A6407
:105014005B6C03F480730193019B074B1868C30412
:1050240003D4064902B000F0C1BA02B0704700BF11
:10503400002001400038024020000020D48D0008E8
:10504400084B01685A6A42F480725A625A6A22F41E
:1050540080725A62044A914202BF5A6C22F48072EE
:105064005A6470470038024000200140F0B599B0FE
:10507400044648220E4606A8002103F0AFF9102288
:10508400002102A803F0AAF90023E204ADF80230DB
:10509400019361D541F203039C425DD83A4B0693D8
:1050A4002046FFF79FFF07270546082E65D00A2EE6
:1050B40066D0062E0CBF4FF0407300234FF48032AD
:1050C400CDE90723314A0023CDE90933CDE9102383
:1050D4008DF830308DF838300F938DF848301693B2
:1050E40014938DF854302A4B012606A80B960D967E
:1050F4001C60FCF709F800283AD1CDE9047002A934
:1051040006A8CDE90256FCF799F9002830D106A883
:10511400FCF7BAF860BB0A2106A8FCF738F938BBDB
:1051240006A8FCF71BFA830505D506A8FCF782F947
:1051340080B2ADF8020006A8FCF70EF9C0B906A8C3
:10514400FCF788F8A0B9134A536823F4400353606A
:10515400BDF8020080B20CE00F49204600F03EFA90
:1051640001A906902046FFF731FF069B054613B9B7
:10517400002019B0F0BD012797E74FF000739DE7B9
:105184004FF080739AE700BF002001400100000F38
:105194002000002000230140D48D0008F8B51349F5
:1051A400134F064600F01AFAFFF752F857F820306A
:1051B400054673B9B020FFF79DFE0C4904463046FE
:1051C40000F00CFA01462046FFF73CF957F8253069
:1051D4001C601C6844B12046FFF774F82046B021D7
:1051E400BDE8F840FFF788BEF8BD00BFA08B0008FB
:1051F400F4040020FBF76EBF704708B5FBF75EFFB1
:10520400FCF735FAFFF7F8FF08BD704784B0114B7F
:1052140000220192196C41F080511964196C01F05B
:105224008051019101990292596C41F48041596471
:10523400596C01F480410291029903921A6B42F471
:1052440080521A631B6B03F480530393039B04B0D3
:10525400704700BF003802400C4BD3F8FC20D20149
:105264005EBFD3F8FC2042F08072C3F8FC20084BE8
:1052740000225A601A6842F001021A6000BF00BF9F
:1052840000BF5868B0FA80F04009704700ED00E0B4
:10529400001000E008B5FFF7B9FFFFF7DDFFFBF7EB
:1052A400F3FEFFF7B2FF02F0E5F90348FCF7E4F977
:1052B400BDE8084002F0D4B9240000200023C0E96E
:1052C4000033C0E9023370470023012803F10102CF
:1052D4000AD11422DBB25343054A181D10448168D5
:1052E40029B11A441369184740081346EDE770477B
:1052F400140500200120FCF723BA0220FCF720BA91
:105304000420FCF71DBA0820FCF71ABA1020FCF799
:1053140017BA08B52020FCF713FA4020FCF710FA5E
:105324008020FCF70DFA4FF48070FCF709FABDE811
:1053340008404FF40070FCF703BA38B506244FF464
:105344008065A8B2FCF7FCF9013C4FEA4505F8D1A9
:1053540038BD0000344A104608B5062300F8043B63
:10536400FFF7ACFF072302F118001375FFF7A6FF40
:10537400082302F12C0082F82830FFF79FFF09234D
:1053840002F1400082F83C30FFF798FF0A2302F153
:10539400540082F850301721FFF790FF02F16800A3
:1053A40082F86410FFF78AFF02F17C0082F878101B
:1053B400FFF784FF02F1900082F88C10FFF77EFF64
:1053C40002F1A40082F8A010FFF778FF02F1B80000
:1053D40082F8B4102821FFF771FF02F1CC0082F8A3
:1053E400C810FFF76BFF02F1E00082F8DC10FFF752
:1053F40065FF02F1F40082F8F010FFF75FFF02F599
:10540400847082F80411FFF759FF02F58E7082F858
:105414001811FFF753FFBDE8084002F5987082F8B1
:105424002C11FFF74BBF00BF1405002038B5054C05
:10543400A4F5A075143C201DFBF7C7F8AC42F9D1C4
:1054440038BD00BF5406002030B591FAA1F391FA9B
:10545400A1F1B3FA83F3C4685B000325B1FA81F1C7
:1054640005FA03F3490024EA03038A401A43C2609D
:1054740030BD431C04D00C3151F80C3C5A1C01D1F2
:1054840000207047834201F10C01F5D101207047DF
:10549400F8B5471C06460D4600D1FEE700F00F02A2
:1054A400414BC0F3031053F82240FFF727FD94FA51
:1054B400A4F3B3FA83F3876803225B0002FA03F3CD
:1054C40094FAA4F2B2FA82F227EA03075200032301
:1054D40093403B4305F007018360032903D8DFE8C9
:1054E40001F05F612C03FEE7032394FAA4F2B2FAFD
:1054F40082F206685200032707FA02F226EA02063D
:1055040094FAA4F2B2FA82F252009340013933437E
:105514000129036005D843682A074CBF2343A343EA
:105524004360C5F30112012A02D0022A18BF0022E7
:105534002146BDE8F840FFF787BFC5F306227F2A5E
:1055440001D10223D1E7360716D5230A93FAA3F62D
:10555400B6FA86F6476A93FAA3F3B6004FF00F0C37
:10556400B3FA83F30CFA06F69B0027EA060602FA5E
:1055740003F333434362E4E794FAA4F3B3FA83F303
:10558400066A9B000F2707FA03F326EA030694FA38
:10559400A4F3B3FA83F39B009A4032430262D0E748
:1055A4000023A2E70123A0E7EC890008431C06D1ED
:1055B4007047834202D18968FFF76ABF0C310B68D8
:1055C4005A1CF6D1FEE70B685A1C01D10020704723
:1055D400834201D1486870470C31F4E7431C01D081
:1055E400FFF7F1BF002070474B6813B94FF0FF304D
:1055F4007047834201D1086870470C31F4E708B161
:10560400FFF7F2BF4FF0FF30704703460868421CB3
:1056140000D17047984201D1886870470C31F5E792
:10562400431C01D0FFF7F1BF704703468B42084685
:1056340004D01BB100290CBF18460020704700009D
:105644001049D1F8883043F47003C1F888300E4B08
:105654001A6842F001021A6000229A601A6822F065
:10566400847222F480321A60084A5A601A6822F45A
:1056740080221A604FF43F02DA604FF000638B60BF
:10568400704700BF00ED00E00038024010300024F5
:105694000438704703683F4A934288B01BD1002204
:1056A40000923D4A516C41F001015164526C02F088
:1056B40001020092009A394A93421BD100230593B8
:1056C400354B5A6C42F480325A645B6C03F4803379
:1056D4000593059B4CE0B3F1804F1BD1002201924E
:1056E4002D4A116C41F001011164126C02F00102A7
:1056F4000192019A2A4A93421BD100230693264B16
:105704005A6C42F400325A645B6C03F4003306931F
:10571400069B2DE0234A93421BD1002202921E4A8B
:10572400116C41F002011164126C02F00202029247
:10573400029A1D4A93421BD100230793164B5A6CBD
:1057440042F480225A645B6C03F480230793079B22
:105754000EE0164A93420DD1002303930E4B1A6CAC
:1057640042F004021A641B6C03F004030393039BCA
:1057740008B070470E4A93429DD100230493064B10
:105784001A6C42F008021A641B6C03F008030493B9
:10579400049BEDE700000140003802400040014056
:1057A400004401400004004000480140000800405B
:1057B400000C00400368234A93420ED122494A6CEC
:1057C40022F001024A64214A93420ED102F5784242
:1057D400536C23F4803353647047B3F1804F0DD17D
:1057E40019490A6C22F001020A64194A93420DD144
:1057F40002F57442536C23F40033ECE7154A9342E8
:105804000DD111490A6C22F002020A64124A934231
:10581400E2D102F57042536C23F48023DBE70F4A94
:10582400934206D102F50C32136C23F00403136483
:1058340070470B4A9342C6D102F50B32136C23F026
:105844000803F4E700000140003802400040014032
:1058540000440140000400400048014000080040AA
:10586400000C0040431C21D0184B984221D00BD887
:10587400A3F5006398421ED003F5806398421CD0C0
:10588400B0F1804F1BD0FEE7114B984219D008D8D5
:10589400A3F58843984214D003F58043984212D06C
:1058A400F1E70C4B9842EED11A2070476FF00D00CF
:1058B4007047322070471D2070471E2070471C20FF
:1058C4007047192070471820704700BF000C004033
:1058D4000044014000480140431C21D0194B984228
:1058E40021D010D8A3F5784398421ED007D8B0F140
:1058F400804F1CD0A3F5806398421AD0FEE7124B68
:10590400984218D0FAE7114B984216D003F58063F9
:10591400984214D0A3F500639842EFD11820704741
:105924006FF00D0070471B2070471E2070471C202D
:1059340070471D20704732207047192070471A2085
:10594400704700BF00000140000C004000440140CB
:1059540038B5FFF79FFE04460068FFF783FFD4E9DC
:105964001212FBF70FFE2068FFF77CFFFBF73CFEEB
:1059740022681046FFF7B0FF05461046FFF772FF96
:1059840085420BD02846D4E91212FBF7FBFD2068B0
:10599400FFF7A2FFBDE83840FBF726BE38BD000084
:1059A4002DE9F04F87B004468A46406D6A4998460F
:1059B400109B01939146FFF711FE68498346A06D41
:1059C400FFF70CFE66490646E06DFFF707FE6549E2
:1059D4000546206EFFF702FE0746BBF1000F00F0FC
:1059E400B780A26D013202D0002E00F0B180E26DCA
:1059F400013202D0002D00F0AB80226E013202D0C1
:105A0400002F00F0A58031465846FFF70EFE0346EE
:105A1400206020B90146FFF708FE034620602946AE
:105A24001846FFF702FE39462060FFF7FEFD2060AE
:105A3400002800F08D804C4B98424ED103F59433EE
:105A44005A6A42F010025A625A6A22F010025A62EA
:105A5400002203925A6C42F010025A645B6C03F009
:105A640010030393039B2523A4F864303A49606D23
:105A7400FFF79CFD1EB13949A06DFFF797FD2DB1CD
:105A84003749E06DFFF792FD4FF480752FB135492A
:105A9400206E45F40075FFF789FD94F86520334BBB
:105AA40094F96400C4F80C90271D43F8227023680D
:105AB400C4E9013A019B0022C4E904380C23C4E977
:105AC400063522620121FBF75DFD3846002E3AD1EE
